{
  "abi": [
    {
      "inputs": [],
      "name": "ErrorCreatingContract",
      "type": "error"
    },
    {
      "inputs": [],
      "name": "ErrorCreatingProxy",
      "type": "error"
    },
    {
      "inputs": [],
      "name": "TargetAlreadyExists",
      "type": "error"
    },
    {
      "inputs": [
        {
          "internalType": "string",
          "name": "salt",
          "type": "string"
        }
      ],
      "name": "deploy",
      "outputs": [
        {
          "internalType": "address",
          "name": "deployed",
          "type": "address"
        }
      ],
      "stateMutability": "payable",
      "type": "function"
    },
    {
      "inputs": [
        {
          "internalType": "string",
          "name": "salt",
          "type": "string"
        }
      ],
      "name": "getDeployed",
      "outputs": [
        {
          "internalType": "address",
          "name": "deployed",
          "type": "address"
        }
      ],
      "stateMutability": "view",
      "type": "function"
    },
    {
      "inputs": [
        {
          "internalType": "string",
          "name": "salt",
          "type": "string"
        },
        {
          "internalType": "address",
          "name": "child",
          "type": "address"
        }
      ],
      "name": "verifyDeployed",
      "outputs": [
        {
          "internalType": "bool",
          "name": "status",
          "type": "bool"
        },
        {
          "internalType": "bytes32",
          "name": "childSalt",
          "type": "bytes32"
        }
      ],
      "stateMutability": "view",
      "type": "function"
    }
  ],
  "bytecode": {
    "object": "0x608060405234801561001057600080fd5b5061086b806100206000396000f3fe6080604052600436106100345760003560e01c8063841ae7fb14610039578063a07c07c314610075578063c7602316146100ad575b600080fd5b34801561004557600080fd5b506100596100543660046104fd565b6100c0565b6040805192151583526020830191909152015b60405180910390f35b34801561008157600080fd5b5061009561009036600461055b565b610166565b6040516001600160a01b03909116815260200161006c565b6100956100bb36600461055b565b6101a2565b6000806000846040516020016100d691906105c0565b604051602081830303815290604052805190602001209050836001600160a01b031663bfa0b1336040518163ffffffff1660e01b8152600401602060405180830381865afa15801561012c573d6000803e3d6000fd5b505050506040513d601f19601f8201168201806040525081019061015091906105dc565b915081810361015e57600192505b509250929050565b6000808260405160200161017a91906105c0565b60405160208183030381529060405280519060200120905061019b8161027b565b9392505050565b600034671bc16d674ec80000146101b857600080fd5b6000826040516020016101cb91906105c0565b60408051601f19818403018152828252805160209182012083830183528084523384830152915191935061027391849161020690820161044d565b601f1982820381018352601f90910116604081815285516020808401919091528601516001600160a01b0316908201526060810186905260800160408051601f198184030181529082905261025e92916020016105f5565b6040516020818303038152906040523461032e565b949350505050565b604080516001600160f81b031960208083019190915230606090811b6bffffffffffffffffffffffff19908116602185015260358401959095527f21c35dbe1b344a2488cf3321d6ce542f8e9f305544ff09e4993a62319a497c1f605580850191909152845180850390910181526075840185528051908301206135a560f21b6095850152901b9093166097820152600160f81b60ab8201528151608c81830301815260ac909101909152805191012090565b60408051808201909152601081526f67363d3d37363d34f03d5260086018f360801b60208201526000906103618561027b565b9150813b156103835760405163cd43efa160e01b815260040160405180910390fd5b6000858251602084016000f590506001600160a01b0381166103b85760405163bbd2fe8760e01b815260040160405180910390fd5b6000816001600160a01b031685876040516103d391906105c0565b60006040518083038185875af1925050503d8060008114610410576040519150601f19603f3d011682016040523d82523d6000602084013e610415565b606091505b505090508015806104255750833b155b15610443576040516353de54b960e01b815260040160405180910390fd5b5050509392505050565b6102118061062583390190565b634e487b7160e01b600052604160045260246000fd5b600082601f83011261048157600080fd5b813567ffffffffffffffff8082111561049c5761049c61045a565b604051601f8301601f19908116603f011681019082821181831017156104c4576104c461045a565b816040528381528660208588010111156104dd57600080fd5b836020870160208301376000602085830101528094505050505092915050565b6000806040838503121561051057600080fd5b823567ffffffffffffffff81111561052757600080fd5b61053385828601610470565b92505060208301356001600160a01b038116811461055057600080fd5b809150509250929050565b60006020828403121561056d57600080fd5b813567ffffffffffffffff81111561058457600080fd5b61027384828501610470565b60005b838110156105ab578181015183820152602001610593565b838111156105ba576000848401525b50505050565b600082516105d2818460208701610590565b9190910192915050565b6000602082840312156105ee57600080fd5b5051919050565b60008351610607818460208801610590565b83519083019061061b818360208801610590565b0194935050505056fe608060405260405161021138038061021183398101604081905261002291610091565b600080805260016020908152604080518082019091527fa6eef7e35abe7026729641147f7915573c7e97b47efa546f5f6e3230263bcb495481527fa6eef7e35abe7026729641147f7915573c7e97b47efa546f5f6e3230263bcb4a546001600160a01b0316910152555061011a565b60008082840360608112156100a557600080fd5b60408112156100b357600080fd5b50604080519081016001600160401b03811182821017156100e457634e487b7160e01b600052604160045260246000fd5b6040528351815260208401516001600160a01b038116811461010557600080fd5b60208201526040939093015192949293505050565b60e9806101286000396000f3fe6080604052348015600f57600080fd5b506004361060325760003560e01c8063474da79a146037578063bfa0b133146086575b600080fd5b60646042366004609b565b600160208190526000918252604090912080549101546001600160a01b031682565b604080519283526001600160a01b039091166020830152015b60405180910390f35b608e60005481565b604051908152602001607d565b60006020828403121560ac57600080fd5b503591905056fea26469706673582212204374730d1965c35a9ef5451b77ecf4080dc1f707d751826e36ca557b113ddfb564736f6c634300080f0033a264697066735822122064f82e767cb26139a14ee7d63282742f4bc3f61b5385396c08770ff19428d29364736f6c634300080f0033",
    "linkReferences": {}
  },
  "methodIdentifiers": {
    "deploy(string)": "c7602316",
    "getDeployed(string)": "a07c07c3",
    "verifyDeployed(string,address)": "841ae7fb"
  },
  "id": 2
}