{
  "abi": [
    {
      "inputs": [],
      "name": "ErrorCreatingContract",
      "type": "error"
    },
    {
      "inputs": [],
      "name": "ErrorCreatingProxy",
      "type": "error"
    },
    {
      "inputs": [],
      "name": "TargetAlreadyExists",
      "type": "error"
    },
    {
      "inputs": [
        {
          "internalType": "string",
          "name": "salt",
          "type": "string"
        }
      ],
      "name": "deployChild",
      "outputs": [
        {
          "internalType": "address",
          "name": "deployed",
          "type": "address"
        }
      ],
      "stateMutability": "payable",
      "type": "function"
    },
    {
      "inputs": [
        {
          "internalType": "string",
          "name": "salt",
          "type": "string"
        }
      ],
      "name": "getDeployed",
      "outputs": [
        {
          "internalType": "address",
          "name": "deployed",
          "type": "address"
        }
      ],
      "stateMutability": "view",
      "type": "function"
    },
    {
      "inputs": [
        {
          "internalType": "string",
          "name": "salt",
          "type": "string"
        },
        {
          "internalType": "address",
          "name": "child",
          "type": "address"
        }
      ],
      "name": "verifyDeployed",
      "outputs": [
        {
          "internalType": "bool",
          "name": "status",
          "type": "bool"
        },
        {
          "internalType": "bytes32",
          "name": "childSalt",
          "type": "bytes32"
        }
      ],
      "stateMutability": "view",
      "type": "function"
    }
  ],
  "bytecode": {
    "object": "0x608060405234801561001057600080fd5b506108a5806100206000396000f3fe6080604052600436106100345760003560e01c8063808c4b4f14610039578063841ae7fb14610069578063a07c07c3146100a0575b600080fd5b61004c610047366004610537565b6100c0565b6040516001600160a01b0390911681526020015b60405180910390f35b34801561007557600080fd5b5061008961008436600461056c565b6101d3565b604080519215158352602083019190915201610060565b3480156100ac57600080fd5b5061004c6100bb366004610537565b610279565b600034671bc16d674ec80000146101105760405162461bcd60e51b815260206004820152601060248201526f0c88195d1a195c881c995c5d5a5c995960821b604482015260640160405180910390fd5b60008260405160200161012391906105fa565b60408051601f1981840301815282825280516020918201208383018352808452338483015291519193506101cb91849161015e908201610487565b601f1982820381018352601f90910116604081815285516020808401919091528601516001600160a01b0316908201526060810186905260800160408051601f19818403018152908290526101b69291602001610616565b604051602081830303815290604052346102b5565b949350505050565b6000806000846040516020016101e991906105fa565b604051602081830303815290604052805190602001209050836001600160a01b031663bfa0b1336040518163ffffffff1660e01b8152600401602060405180830381865afa15801561023f573d6000803e3d6000fd5b505050506040513d601f19601f820116820180604052508101906102639190610645565b915081810361027157600192505b509250929050565b6000808260405160200161028d91906105fa565b6040516020818303038152906040528051906020012090506102ae816103d4565b9392505050565b60408051808201909152601081526f67363d3d37363d34f03d5260086018f360801b60208201526000906102e8856103d4565b9150813b1561030a5760405163cd43efa160e01b815260040160405180910390fd5b6000858251602084016000f590506001600160a01b03811661033f5760405163bbd2fe8760e01b815260040160405180910390fd5b6000816001600160a01b0316858760405161035a91906105fa565b60006040518083038185875af1925050503d8060008114610397576040519150601f19603f3d011682016040523d82523d6000602084013e61039c565b606091505b505090508015806103ac5750833b155b156103ca576040516353de54b960e01b815260040160405180910390fd5b5050509392505050565b604080516001600160f81b031960208083019190915230606090811b6bffffffffffffffffffffffff19908116602185015260358401959095527f21c35dbe1b344a2488cf3321d6ce542f8e9f305544ff09e4993a62319a497c1f605580850191909152845180850390910181526075840185528051908301206135a560f21b6095850152901b9093166097820152600160f81b60ab8201528151608c81830301815260ac909101909152805191012090565b6102118061065f83390190565b634e487b7160e01b600052604160045260246000fd5b600082601f8301126104bb57600080fd5b813567ffffffffffffffff808211156104d6576104d6610494565b604051601f8301601f19908116603f011681019082821181831017156104fe576104fe610494565b8160405283815286602085880101111561051757600080fd5b836020870160208301376000602085830101528094505050505092915050565b60006020828403121561054957600080fd5b813567ffffffffffffffff81111561056057600080fd5b6101cb848285016104aa565b6000806040838503121561057f57600080fd5b823567ffffffffffffffff81111561059657600080fd5b6105a2858286016104aa565b92505060208301356001600160a01b03811681146105bf57600080fd5b809150509250929050565b60005b838110156105e55781810151838201526020016105cd565b838111156105f4576000848401525b50505050565b6000825161060c8184602087016105ca565b9190910192915050565b600083516106288184602088016105ca565b83519083019061063c8183602088016105ca565b01949350505050565b60006020828403121561065757600080fd5b505191905056fe608060405260405161021138038061021183398101604081905261002291610091565b600080805260016020908152604080518082019091527fa6eef7e35abe7026729641147f7915573c7e97b47efa546f5f6e3230263bcb495481527fa6eef7e35abe7026729641147f7915573c7e97b47efa546f5f6e3230263bcb4a546001600160a01b0316910152555061011a565b60008082840360608112156100a557600080fd5b60408112156100b357600080fd5b50604080519081016001600160401b03811182821017156100e457634e487b7160e01b600052604160045260246000fd5b6040528351815260208401516001600160a01b038116811461010557600080fd5b60208201526040939093015192949293505050565b60e9806101286000396000f3fe6080604052348015600f57600080fd5b506004361060325760003560e01c8063474da79a146037578063bfa0b133146086575b600080fd5b60646042366004609b565b600160208190526000918252604090912080549101546001600160a01b031682565b604080519283526001600160a01b039091166020830152015b60405180910390f35b608e60005481565b604051908152602001607d565b60006020828403121560ac57600080fd5b503591905056fea26469706673582212204374730d1965c35a9ef5451b77ecf4080dc1f707d751826e36ca557b113ddfb564736f6c634300080f0033a2646970667358221220012c8ad9594a05b872ed0a06c3e276c813bc62e4a3273b8339873ffa2b794f5764736f6c634300080f0033",
    "linkReferences": {}
  },
  "methodIdentifiers": {
    "deployChild(string)": "808c4b4f",
    "getDeployed(string)": "a07c07c3",
    "verifyDeployed(string,address)": "841ae7fb"
  },
  "id": 2
}