{
  "abi": [
    {
      "inputs": [
        {
          "components": [
            {
              "internalType": "bytes32",
              "name": "salt",
              "type": "bytes32"
            },
            {
              "internalType": "address",
              "name": "owner",
              "type": "address"
            }
          ],
          "internalType": "struct ChildContract.ContractDetails",
          "name": "CD",
          "type": "tuple"
        },
        {
          "internalType": "bytes32",
          "name": "_salt",
          "type": "bytes32"
        }
      ],
      "stateMutability": "payable",
      "type": "constructor"
    },
    {
      "inputs": [
        {
          "internalType": "uint256",
          "name": "",
          "type": "uint256"
        }
      ],
      "name": "contracts",
      "outputs": [
        {
          "internalType": "bytes32",
          "name": "salt",
          "type": "bytes32"
        },
        {
          "internalType": "address",
          "name": "owner",
          "type": "address"
        }
      ],
      "stateMutability": "view",
      "type": "function"
    },
    {
      "inputs": [],
      "name": "salt",
      "outputs": [
        {
          "internalType": "bytes32",
          "name": "",
          "type": "bytes32"
        }
      ],
      "stateMutability": "view",
      "type": "function"
    }
  ],
  "bytecode": {
    "object": "0x608060405260405161021138038061021183398101604081905261002291610091565b600080805260016020908152604080518082019091527fa6eef7e35abe7026729641147f7915573c7e97b47efa546f5f6e3230263bcb495481527fa6eef7e35abe7026729641147f7915573c7e97b47efa546f5f6e3230263bcb4a546001600160a01b0316910152555061011a565b60008082840360608112156100a557600080fd5b60408112156100b357600080fd5b50604080519081016001600160401b03811182821017156100e457634e487b7160e01b600052604160045260246000fd5b6040528351815260208401516001600160a01b038116811461010557600080fd5b60208201526040939093015192949293505050565b60e9806101286000396000f3fe6080604052348015600f57600080fd5b506004361060325760003560e01c8063474da79a146037578063bfa0b133146086575b600080fd5b60646042366004609b565b600160208190526000918252604090912080549101546001600160a01b031682565b604080519283526001600160a01b039091166020830152015b60405180910390f35b608e60005481565b604051908152602001607d565b60006020828403121560ac57600080fd5b503591905056fea26469706673582212204374730d1965c35a9ef5451b77ecf4080dc1f707d751826e36ca557b113ddfb564736f6c634300080f0033",
    "linkReferences": {}
  },
  "methodIdentifiers": {
    "contracts(uint256)": "474da79a",
    "salt()": "bfa0b133"
  },
  "id": 0
}